{
  "contractName": "Prestamo",
  "abi": [
    {
      "constant": true,
      "inputs": [],
      "name": "tasa",
      "outputs": [
        {
          "name": "",
          "type": "uint256"
        }
      ],
      "payable": false,
      "stateMutability": "view",
      "type": "function"
    },
    {
      "constant": true,
      "inputs": [],
      "name": "plazo",
      "outputs": [
        {
          "name": "",
          "type": "uint256"
        }
      ],
      "payable": false,
      "stateMutability": "view",
      "type": "function"
    },
    {
      "constant": true,
      "inputs": [],
      "name": "plz",
      "outputs": [
        {
          "name": "",
          "type": "uint256"
        }
      ],
      "payable": false,
      "stateMutability": "view",
      "type": "function"
    },
    {
      "constant": true,
      "inputs": [],
      "name": "monto",
      "outputs": [
        {
          "name": "",
          "type": "uint256"
        }
      ],
      "payable": false,
      "stateMutability": "view",
      "type": "function"
    },
    {
      "constant": false,
      "inputs": [
        {
          "name": "montoOfre",
          "type": "uint256"
        },
        {
          "name": "plazoOfre",
          "type": "uint256"
        },
        {
          "name": "interesOfre",
          "type": "uint256"
        }
      ],
      "name": "setOferta",
      "outputs": [],
      "payable": false,
      "stateMutability": "nonpayable",
      "type": "function"
    },
    {
      "constant": false,
      "inputs": [],
      "name": "tomarOferta",
      "outputs": [],
      "payable": false,
      "stateMutability": "nonpayable",
      "type": "function"
    },
    {
      "constant": false,
      "inputs": [],
      "name": "liquidarOferta",
      "outputs": [],
      "payable": true,
      "stateMutability": "payable",
      "type": "function"
    }
  ],
  "bytecode": "0x608060405234801561001057600080fd5b506102e0806100206000396000f3fe6080604052600436106100705760003560e01c8063cb1d89181161004e578063cb1d8918146100e2578063e2fc90681461010d578063e397a78f1461015c578063f1fe2ea01461016657610070565b80632781ea331461007557806349ce78531461008c578063b619d92d146100b7575b600080fd5b34801561008157600080fd5b5061008a610191565b005b34801561009857600080fd5b506100a16101d4565b6040518082815260200191505060405180910390f35b3480156100c357600080fd5b506100cc6101da565b6040518082815260200191505060405180910390f35b3480156100ee57600080fd5b506100f76101e0565b6040518082815260200191505060405180910390f35b34801561011957600080fd5b5061015a6004803603606081101561013057600080fd5b810190808035906020019092919080359060200190929190803590602001909291905050506101e6565b005b610164610241565b005b34801561017257600080fd5b5061017b6102ae565b6040518082815260200191505060405180910390f35b33600560006101000a81548173ffffffffffffffffffffffffffffffffffffffff021916908373ffffffffffffffffffffffffffffffffffffffff160217905550565b60025481565b60015481565b60035481565b82600081905550816001819055508060028190555033600460006101000a81548173ffffffffffffffffffffffffffffffffffffffff021916908373ffffffffffffffffffffffffffffffffffffffff160217905550505050565b600560009054906101000a900473ffffffffffffffffffffffffffffffffffffffff1673ffffffffffffffffffffffffffffffffffffffff166108fc6000549081150290604051600060405180830381858888f193505050501580156102ab573d6000803e3d6000fd5b50565b6000548156fea165627a7a72305820bfa657d4de6578c5c8500b5d607e57b4a0e004b00b3ddd38a30d3e49c220724d0029",
  "source": "pragma solidity ^0.5.8;\n\ncontract Prestamo {\n\n    uint256 public monto;\n    uint256 public plazo;\n    uint256 public tasa;\n    uint public plz;\n    address payable acredor;\n    address payable deudor;\n    ufixed128x19 rezasgo;\n    uint256 tiempoDeCobro;\n\n\n\n\n    function setOferta (uint256 montoOfre, uint256 plazoOfre, uint256 interesOfre)public {\n        monto =  montoOfre;\n        plazo =  plazoOfre;\n        tasa =  interesOfre;\n        acredor = msg.sender;\n\n    }\n    function tomarOferta () public {\n//        uint256 montoADebtiar = monto * -1;\n//        acredor.transfer(montoADebtiar);\n        deudor = msg.sender;\n\n    }\n    function liquidarOferta() public payable {\n        deudor.transfer(monto);\n    }\n\n\n\n\n\n\n/**\n    function obtenerCuota()public payable returns (ufixed128x19){\n\n\n        for (uint i=0; i==plz; i++) {\n            rezasgo = rezasgo * (1 / (1 + tasa / plazo));\n        }\n\n\n        ufixed128x19 cuota =  monto * (( tasa / plazo ) / (1 - rezasgo));\n        emit logNumero(cuota);\n        return cuota;\n    }\n\n    function setOferta (ufixed128x19 montoOfre, ufixed128x19 plazoOfre, ufixed128x19 interesOfre)public {\n        monto =  montoOfre;\n        plazo =  plazoOfre;\n        tasa =  interesOfre;\n        acredor = msg.sender;\n\n    }\n\n**/\n\n\n\n}\n",
  "sourcePath": "/home/deveth/Documents/Workspace/pet-shop-tutorial/contracts/Prestamo.sol",
  "compiler": {
    "name": "solc",
    "version": "0.5.8+commit.23d335f2.Emscripten.clang"
  },
  "schemaVersion": "3.0.11",
  "updatedAt": "2019-08-25T17:19:07.787Z",
  "devdoc": {
    "methods": {}
  },
  "userdoc": {
    "methods": {}
  }
}